:100000000C942A000C945C0B0C948F0B0C94C20B78
:100010000C9447000C9447000C9489080C942F080A
:100020000C945C080C9402080C9459090C948C09EB
:100030000C9447000C9447000C9447000C94470024
:100040000C9447000C9447000C9447000C94470014
:100050000C94470011241FBECFE5D8E0DEBFCDBF12
:1000600011E0A0E6B0E0EAE6F0E402C005900D92EF
:10007000A63CB107D9F711E0A6ECB1E001C01D9292
:10008000A63DB107E1F70E9496180C9433200C941A
:100090000000EF92FF920F931F937B018C0120E0F1
:1000A00030E040E05FE40E94490388238CF0C801FF
:1000B000B70120E030E040E05FE40E94C1010E940F
:1000C000A9039B01AC01205030404040504806C07D
:1000D000C801B7010E94A9039B01AC01B901CA0183
:1000E0001F910F91FF90EF900895A0E0B0E0EBE733
:1000F000F0E00C94F31FDC012B01FA019C9192308B
:1001000008F439C1EB018881823008F433C194309E
:1001100069F4843009F02FC111969C91119789815F
:10012000981709F428C1A6E8B1E025C1843009F484
:1001300021C18230A9F4923009F01DC19A01AD01AC
:1001400088E0EA010990AE01E90109929E0181501F
:10015000C1F7E201898111969C918923818308C1AD
:10016000923009F407C112962D903C901397EB0141
:100170008A819B811496AD90BD90CD90DC901797AD
:10018000EC80FD800E811F819101281B390BB90184
:1001900037FF04C066277727621B730B6032710537
:1001A0000CF061C0121613066CF537014801062EDB
:1001B00004C096948794779467940A94D2F721E0C8
:1001C00030E040E050E004C0220F331F441F551FB1
:1001D0006A95D2F721503040404050402E213F21B7
:1001E00040235123211531054105510521F021E01E
:1001F00030E040E050E079018A01E628F72808293C
:1002000019293CC0232BD1F1260E371E350146019A
:10021000062E04C096948794779467940A94D2F734
:1002200021E030E040E050E004C0220F331F441FC3
:10023000551F6A95D2F721503040404050402A2146
:100240003B214C215D21211531054105510521F04E
:1002500021E030E040E050E059016A01A628B728CB
:10026000C828D9280BC0821593052CF01C01AA249C
:10027000BB24650103C0EE24FF24870111969C91E5
:10028000D20111968C91981709F445C0992339F041
:10029000A80197012A193B094C095D0906C0A6016E
:1002A00095012E193F09400B510B57FD08C01182D3
:1002B0003382228224833583468357831DC081E0A5
:1002C00081833382228288279927DC01821B930B4A
:1002D000A40BB50B84839583A683B7830DC0220F2F
:1002E000331F441F551F24833583468357838281E0
:1002F000938101979383828324813581468157813D
:10030000DA01C9010197A109B1098F5F9F4FAF4F72
:10031000BF4328F30BC0918333822282EA0CFB1C7B
:100320000C1D1D1DE482F5820683178383E0808304
:10033000248135814681578157FF1AC0C901AA27F8
:1003400097FDA095BA2F81709070A070B0705695EF
:10035000479537952795822B932BA42BB52B848318
:100360009583A683B7838281938101969383828349
:10037000DF0101C0D201CD01CDB7DEB7E2E10C94BF
:100380000F20A0E2B0E0E7ECF1E00C94FF1F6983DE
:100390007A838B839C832D833E834F835887E9E048
:1003A000EE2EF12CEC0EFD1ECE010196B7010E943F
:1003B000D2048E010F5E1F4FCE010596B8010E9438
:1003C000D2048A8991E089278A8BC701B801AE01DE
:1003D000475E5F4F0E9475000E94FD03A096E6E015
:1003E0000C941B20A0E2B0E0E8EFF1E00C94FF1FBA
:1003F00069837A838B839C832D833E834F835887C5
:10040000F9E0EF2EF12CEC0EFD1ECE010196B701A6
:100410000E94D2048E010F5E1F4FCE010596B801D7
:100420000E94D204C701B801AE01475E5F4F0E942F
:1004300075000E94FD03A096E6E00C941B20A0E24C
:10044000B0E0E5E2F2E00C94F31F69837A838B83DA
:100450009C832D833E834F835887CE010196BE0136
:10046000675F7F4F0E94D204CE010596BE016F5E8A
:100470007F4F0E94D2049985923088F0898982301A
:10048000C8F0943019F4823051F404C0843029F457
:10049000923081F486E891E0C6C0923049F420E0C1
:1004A0009A858A89981321E02A87CE010996BBC0D4
:1004B000823049F420E09A858A89981321E02A8BBA
:1004C000CE014196B0C02D843E844F8458886D88FB
:1004D0007E888F88988CEE24FF248701AA24BB2471
:1004E000650140E050E060E070E0E0E0F0E0C10174
:1004F00081709070892BE9F0E60CF71C081D191D1E
:100500009A01AB012A0D3B1D4C1D5D1D80E090E062
:10051000A0E0B0E0E614F7040805190520F481E036
:1005200090E0A0E0B0E0BA01A901480F591F6A1F8E
:100530007B1FAA0CBB1CCC1CDD1C97FE08C081E0F5
:1005400090E0A0E0B0E0A82AB92ACA2ADB2A3196B6
:10055000E032F10549F0660C771C881C991C569412
:10056000479437942794C3CFFA85EA892B893C892D
:100570008B859C85280F391F2E5F3F4F17C0CA01FE
:1005800081709070892B61F016950795F794E79428
:1005900080E090E0A0E0B0E8E82AF92A0A2B1B2BC3
:1005A00076956795579547952F5F3F4F77FDE7CF36
:1005B0000CC0440F551F661F771F17FD4160EE0CDE
:1005C000FF1C001F111F21503040403090E05907A0
:1005D00090E0690790E4790760F32B8F3C8FDB0193
:1005E000CA018F779070A070B07080349105A1051A
:1005F000B10561F447FD0AC0E114F10401051105DC
:1006000029F0405C5F4F6F4F7F4F40781A8EFE1786
:1006100011F081E08A8F4D8F5E8F6F8F78A383E01A
:10062000898FCE0149960E94FD03A096E2E10C94C9
:100630000F20A8E1B0E0EFE1F3E00C94FF1F698325
:100640007A838B839C832D833E834F83588789E0F5
:10065000E82EF12CEC0EFD1ECE010196B7010E9492
:10066000D2048E010F5E1F4FCE010596B8010E9485
:10067000D2048985823040F08989823028F0C70110
:10068000B8010E944A0501C08FEF6896E6E00C941D
:100690001B20A8E1B0E0EFE4F3E00C94FF1F6983B6
:1006A0007A838B839C832D833E834F83588789E095
:1006B000E82EF12CEC0EFD1ECE010196B7010E9432
:1006C000D2048E010F5E1F4FCE010596B8010E9425
:1006D000D2048985823040F08989823028F0C701B0
:1006E000B8010E944A0501C08FEF6896E6E00C94BD
:1006F0001B20A8E1B0E0EFE7F3E00C94FF1F698353
:100700007A838B839C832D833E834F83588789E034
:10071000E82EF12CEC0EFD1ECE010196B7010E94D1
:10072000D2048E010F5E1F4FCE010596B8010E94C4
:10073000D2048985823040F08989823028F0C7014F
:10074000B8010E944A0501C081E06896E6E00C9479
:100750001B20ACE0B0E0EFEAF3E00C9403206983E7
:100760007A838B839C83CE010196BE016B5F7F4FA2
:100770000E94D2048D81823061F1823050F1843048
:1007800021F48E81882351F12EC02F81388537FDC9
:1007900020C06E812F3131051CF06623F9F023C093
:1007A0008EE190E0821B930B29853A854B855C8511
:1007B00004C056954795379527958A95D2F76623B5
:1007C000B1F050954095309521953F4F4F4F5F4F79
:1007D0000EC020E030E040E050E009C02FEF3FEFD6
:1007E0004FEF5FE704C020E030E040E050E8B9019F
:1007F000CA012C96E2E00C941F20DF92EF92FF9248
:100800000F931F93FC01E480F58006811781D1804E
:100810008081823048F480E090E0A0E1B0E0E82AF6
:10082000F92A0A2B1B2BA5C0843009F49FC0823003
:1008300021F4EE24FF24870105C0E114F104010531
:10084000110519F4E0E0F0E096C0628173819FEF3A
:10085000623879070CF05BC022E83FEF261B370BAC
:100860002A3131052CF020E030E040E050E02AC091
:10087000B801A701022E04C0769567955795479554
:100880000A94D2F781E090E0A0E0B0E004C0880FC5
:10089000991FAA1FBB1F2A95D2F70197A109B10979
:1008A0008E219F21A023B1230097A105B10521F03E
:1008B00081E090E0A0E0B0E09A01AB01282B392B59
:1008C0004A2B5B2BDA01C9018F779070A070B07052
:1008D00080349105A105B10539F427FF09C0205CDA
:1008E0003F4F4F4F5F4F04C0215C3F4F4F4F5F4F13
:1008F000E0E0F0E02030A0E03A07A0E04A07A0E402
:100900005A0710F0E1E0F0E079018A0127C0603871
:10091000710564F5FB01E158FF4FD801C7018F77DE
:100920009070A070B07080349105A105B10539F4C4
:10093000E7FE0DC080E490E0A0E0B0E004C08FE3EB
:1009400090E0A0E0B0E0E80EF91E0A1F1B1F17FFA1
:1009500005C016950795F794E794319687E01695AC
:100960000795F794E7948A95D1F705C0EE24FF2404
:100970008701EFEFF0E06E2F679566276795902F60
:100980009F77D794DD24D7948E2F8695492F462BB9
:10099000582F5D29B701CA011F910F91FF90EF9069
:1009A000DF900895FC01DB01408151812281622F9B
:1009B0006F7770E0221F2227221F9381892F880FD3
:1009C000822B282F30E0991F9927991F11969C930D
:1009D000119721153105A9F54115510561057105DD
:1009E00011F482E037C082E89FEF13969C938E93B8
:1009F00012979A01AB0167E0220F331F441F551F66
:100A00006A95D1F783E08C930DC0220F331F441FEA
:100A1000551F12968D919C911397019713969C9355
:100A20008E931297203080E0380780E0480780E4FA
:100A3000580758F314962D933D934D935C93179755
:100A400008952F3F310579F4411551056105710570
:100A500019F484E08C93089564FF03C081E08C93C3
:100A600012C01C9210C02F57304013963C932E9307
:100A7000129783E08C9387E0440F551F661F771F02
:100A80008A95D1F7706414964D935D936D937C9322
:100A9000179708951F93DC01FB019C91923008F495
:100AA00047C08081823008F443C0943051F41196DD
:100AB0001C91843099F58181682F70E0611B710968
:100AC0003FC0843021F0923031F48230B9F181811D
:100AD000882389F12DC011961C9111978230F1F075
:100AE00081811817D9F412962D913C911397828128
:100AF00093818217930794F028173907BCF0149656
:100B00008D919D910D90BC91A02D248135814681C0
:100B10005781281739074A075B0718F4112341F05A
:100B20000AC082179307A407B50740F4112319F0F0
:100B300061E070E005C06FEF7FEF02C060E070E041
:100B4000CB011F910895DF93CF930F92CDB7DEB7FE
:100B5000198289818068898389818F7B89838981D2
:100B600084608983898182608983E0E4F0E08981FF
:100B70008083E9E2F0E083E38083AAE2B0E0EAE286
:100B8000F0E0808180618C93AAE2B0E0EAE2F0E0DC
:100B9000808188608C930F90CF91DF910895DF93CF
:100BA000CF9300D0CDB7DEB78983EBE2F0E0808150
:100BB000ECE2F0E0898180830F900F90CF91DF917C
:100BC0000895DF93CF930F92CDB7DEB7EBE2F0E05D
:100BD0008081ECE2F0E080810F90CF91DF91089569
:100BE000DF93CF93CDB7DEB7EBE2F0E08081807882
:100BF000CF91DF910895DF93CF930F92CDB7DEB7FA
:100C00000E94F005882329F0ECE2F0E080818983DE
:100C100002C08FEF898389810F90CF91DF91089572
:100C2000DF93CF93CDB7DEB7AFE4B0E0EFE4F0E011
:100C300080818E7F8C93AFE4B0E0EFE4F0E08081C0
:100C400082608C93AEE4B0E0EEE4F0E080818860F6
:100C50008C93AEE4B0E0EEE4F0E0808180618C93B0
:100C6000AFE4B0E0EFE4F0E080818F7B8C93AFE401
:100C7000B0E0EFE4F0E0808180688C93AFE4B0E016
:100C8000EFE4F0E080818F7E8C93AFE4B0E0EFE49E
:100C9000F0E0808180628C93AEE4B0E0EEE4F0E0BE
:100CA0008081887F8C93A9E5B0E0E9E5F0E0808160
:100CB0008B7F8C93A9E5B0E0E9E5F0E08081877F48
:100CC0008C93A9E5B0E0E9E5F0E080818F7E8C931C
:100CD000A9E5B0E0E9E5F0E080818F7D8C93A8E59F
:100CE000B0E0E8E5F0E0808184608C93A8E5B0E0B6
:100CF000E8E5F0E0808188608C93A8E5B0E0E8E565
:100D0000F0E0808180618C93A8E5B0E0E8E5F0E058
:100D1000808180628C93EAE4F0E01082EBE4F0E002
:100D20001082E8E4F0E01082E9E4F0E01082ECE404
:100D3000F0E01082EDE4F0E01082E6E4F0E01082F2
:100D4000E7E4F0E01082CF91DF910895DF93CF9335
:100D50000F92CDB7DEB78983AEE4B0E0EEE4F0E009
:100D60008081887F8C93AEE4B0E0EEE4F0E0808197
:100D7000982F89818770892B8C930F90CF91DF9169
:100D80000895DF93CF93CDB7DEB7AEE4B0E0EEE4E5
:100D9000F0E08081887F8C93CF91DF910895DF937D
:100DA000CF93CDB7DEB7A9E5B0E0E9E5F0E080810B
:100DB00084608C93CF91DF910895DF93CF93CDB76B
:100DC000DEB7A9E5B0E0E9E5F0E080818B7F8C93A8
:100DD000CF91DF910895DF93CF93CDB7DEB7A9E52B
:100DE000B0E0E9E5F0E0808180618C93CF91DF9104
:100DF0000895DF93CF93CDB7DEB7A9E5B0E0E9E57D
:100E0000F0E080818F7E8C93CF91DF910895DF9306
:100E1000CF93CDB7DEB7A9E5B0E0E9E5F0E080819A
:100E200088608C93CF91DF910895DF93CF93CDB7F6
:100E3000DEB7A9E5B0E0E9E5F0E08081877F8C933B
:100E4000CF91DF910895DF93CF93CDB7DEB7A9E5BA
:100E5000B0E0E9E5F0E0808180628C93CF91DF9192
:100E60000895DF93CF93CDB7DEB7A9E5B0E0E9E50C
:100E7000F0E080818F7D8C93CF91DF910895DF9397
:100E8000CF9300D0CDB7DEB79A83898389819A81C9
:100E90009093D3018093D2010F900F90CF91DF9167
:100EA0000895DF93CF9300D0CDB7DEB79A838983BF
:100EB00089819A819093D5018093D4010F900F90EE
:100EC000CF91DF910895DF93CF9300D0CDB7DEB7F8
:100ED0009A83898389819A819093CF018093CE01EF
:100EE0000F900F90CF91DF910895DF93CF9300D0B3
:100EF000CDB7DEB79A83898389819A819093D10196
:100F00008093D0010F900F90CF91DF910895DF93E0
:100F1000CF9300D0CDB7DEB79A838983ECE4F0E0BD
:100F200089818083EDE4F0E089819A81892F992776
:100F300080830F900F90CF91DF910895DF93CF932F
:100F400000D0CDB7DEB79A838983EAE4F0E08981E7
:100F50008083EBE4F0E089819A81892F992780834F
:100F60000F900F90CF91DF910895DF93CF9300D032
:100F7000CDB7DEB79A838983E8E4F0E08981808386
:100F8000E9E4F0E089819A81892F992780830F9085
:100F90000F90CF91DF910895DF93CF9300D0CDB71D
:100FA000DEB79A838983E6E4F0E089819A819183B0
:100FB00080830F900F90CF91DF910895DF93CF93AF
:100FC00000D0CDB7DEB7EDE4F0E08081882F90E06F
:100FD0009A83898389819A81982F88279A83898324
:100FE000ECE4F0E08081282F30E089819A81822B27
:100FF000932B9A83898389819A810F900F90CF9147
:10100000DF9108951F920F920FB60F9211242F9324
:101010003F934F935F936F937F938F939F93AF9380
:10102000BF93EF93FF93DF93CF93CDB7DEB7E091FC
:10103000D201F091D3010995CF91DF91FF91EF910A
:10104000BF91AF919F918F917F916F915F914F91E0
:101050003F912F910F900FBE0F901F9018951F92E8
:101060000F920FB60F9211242F933F934F935F93DC
:101070006F937F938F939F93AF93BF93EF93FF9360
:10108000DF93CF93CDB7DEB7E091D401F091D501D6
:101090000995CF91DF91FF91EF91BF91AF919F9112
:1010A0008F917F916F915F914F913F912F910F9011
:1010B0000FBE0F901F9018951F920F920FB60F92B0
:1010C00011242F933F934F935F936F937F938F934D
:1010D0009F93AF93BF93EF93FF93DF93CF93CDB7DE
:1010E000DEB7E091CE01F091CF010995CF91DF916C
:1010F000FF91EF91BF91AF919F918F917F916F91F0
:101100005F914F913F912F910F900FBE0F901F90C5
:1011100018951F920F920FB60F9211242F933F93A1
:101120004F935F936F937F938F939F93AF93BF93EF
:10113000EF93FF93DF93CF93CDB7DEB7E091D0016C
:10114000F091D1010995CF91DF91FF91EF91BF917E
:10115000AF919F918F917F916F915F914F913F914F
:101160002F910F900FBE0F901F901895DF93CF9384
:10117000CDB7DEB7E6E4F0E080819181CF91DF91D9
:101180000895DF93CF93CDB7DEB7AEE4B0E0EEE4E1
:10119000F0E0808180648C93CF91DF910895DF939C
:1011A000CF93CDB7DEB7AEE4B0E0EEE4F0E08081FF
:1011B0008F7B8C93CF91DF910895DF93CF93CDB741
:1011C000DEB7A3E5B0E0E3E5F0E0808180648C93D6
:1011D000A3E5B0E0E3E5F0E0808188608C93A3E5CF
:1011E000B0E0E3E5F0E0808180618C93A3E5B0E0BE
:1011F000E3E5F0E080818F7D8C93CF91DF910895BE
:10120000DF93CF9300D00F92CDB7DEB79B838A8355
:1012100019828A819B81009739F08A819B81909302
:10122000C7018093C60102C082E0898389810F9043
:101230000F900F90CF91DF910895DF93CF930F928E
:10124000CDB7DEB78983ECE5F0E0898180830F902C
:10125000CF91DF910895DF93CF93CDB7DEB7CF91D4
:10126000DF910895DF93CF930F92CDB7DEB78983D7
:10127000A3E5B0E0E3E5F0E08081887F8C93A3E50F
:10128000B0E0E3E5F0E090818981892B8C930F90A9
:10129000CF91DF910895DF93CF930F92CDB7DEB753
:1012A0008983E2E5F0E0898180830F90CF91DF911F
:1012B00008951F920F920FB60F9211242F933F9310
:1012C0004F935F936F937F938F939F93AF93BF934E
:1012D000EF93FF93DF93CF93CDB7DEB78091C60135
:1012E0009091C701009729F0E091C601F091C701E4
:1012F0000995CF91DF91FF91EF91BF91AF919F91B0
:101300008F917F916F915F914F913F912F910F90AE
:101310000FBE0F901F9018951F920F920FB60F924D
:1013200011242F933F934F935F936F937F938F93EA
:101330009F93AF93BF93EF93FF93DF93CF93CDB77B
:10134000DEB78091C6019091C701009729F0E09126
:10135000C601F091C7010995CF91DF91FF91EF91FF
:10136000BF91AF919F918F917F916F915F914F91BD
:101370003F912F910F900FBE0F901F901895DF9304
:10138000CF93CDB7DEB7AFE5B0E0EFE5F0E0808119
:1013900080688C93CF91DF910895DF93CF93CDB781
:1013A000DEB7AFE5B0E0EFE5F0E080818F778C93BA
:1013B000CF91DF910895DF93CF93CDB7DEB72A9712
:1013C0000FB6F894DEBF0FBECDBF89836A838981D3
:1013D000282F30E03A87298789859A8581309105C1
:1013E00009F46DC029853A852230310509F4C9C058
:1013F00089859A85009709F0E9C0ABE5B0E0EBE597
:10140000F0E0808180648C938A81282F30E03887D7
:101410002F838F8198858130910521F12F81388527
:10142000223031052CF48F819885009761F0CEC071
:101430002F8138852230310521F18F8198858330C5
:10144000910571F1C3C0A5E5B0E0E5E5F0E080816C
:101450008E7F8C93A5E5B0E0E5E5F0E080818D7F9F
:101460008C93B4C0A5E5B0E0E5E5F0E08081816053
:101470008C93A5E5B0E0E5E5F0E080818D7F8C936D
:10148000A5C0A5E5B0E0E5E5F0E080818E7F8C9316
:10149000A5E5B0E0E5E5F0E0808182608C9396C040
:1014A000A5E5B0E0E5E5F0E0808181608C93A5E5FD
:1014B000B0E0E5E5F0E0808182608C9387C0ABE529
:1014C000B0E0EBE5F0E0808180688C938A81282F82
:1014D00030E03E832D838D819E818130910521F105
:1014E0002D813E81223031052CF48D819E81009723
:1014F00061F06CC02D813E812230310521F18D815A
:101500009E818330910571F161C0A5E5B0E0E5E50C
:10151000F0E080818B7F8C93A5E5B0E0E5E5F0E01D
:101520008081877F8C9352C0A5E5B0E0E5E5F0E0CF
:10153000808184608C93A5E5B0E0E5E5F0E08081F2
:10154000877F8C9343C0A5E5B0E0E5E5F0E08081BE
:101550008B7F8C93A5E5B0E0E5E5F0E080818860C5
:101560008C9334C0A5E5B0E0E5E5F0E080818460CF
:101570008C93A5E5B0E0E5E5F0E0808188608C9390
:1015800025C0ABE5B0E0EBE5F0E0808180628C93B4
:101590008A81282F30E03C832B838B819C810097AC
:1015A00031F02B813C812130310549F00FC0A4E599
:1015B000B0E0E4E5F0E080818F7B8C9307C0A4E588
:1015C000B0E0E4E5F0E0808180648C932A960FB669
:1015D000F894DEBF0FBECDBFCF91DF910895DF93AA
:1015E000CF9300D00F92CDB7DEB789838981282FA2
:1015F00030E03B832A838A819B818130910589F089
:101600002A813B8122303105A1F08A819B8100979C
:10161000B9F4ABE5B0E0EBE5F0E080818F7B8C9333
:101620000FC0ABE5B0E0EBE5F0E080818F778C9305
:1016300007C0ABE5B0E0EBE5F0E080818F7D8C93F7
:101640000F900F900F90CF91DF910895DF93CF937C
:1016500000D0CDB7DEB79A83898389819A81909330
:10166000C9018093C8010F900F90CF91DF91089529
:10167000DF93CF9300D0CDB7DEB79A83898389817A
:101680009A819093CB018093CA010F900F90CF91D4
:10169000DF910895DF93CF9300D0CDB7DEB79A8363
:1016A000898389819A819093CD018093CC010F9099
:1016B0000F90CF91DF9108951F920F920FB60F9266
:1016C00011242F933F934F935F936F937F938F9347
:1016D0009F93AF93BF93EF93FF93DF93CF93CDB7D8
:1016E000DEB78091C8019091C901009729F0E0917F
:1016F000C801F091C9010995CF91DF91FF91EF9158
:10170000BF91AF919F918F917F916F915F914F9119
:101710003F912F910F900FBE0F901F9018951F9221
:101720000F920FB60F9211242F933F934F935F9315
:101730006F937F938F939F93AF93BF93EF93FF9399
:10174000DF93CF93CDB7DEB78091CA019091CB01E3
:10175000009729F0E091CA01F091CB010995CF9152
:10176000DF91FF91EF91BF91AF919F918F917F9109
:101770006F915F914F913F912F910F900FBE0F90FE
:101780001F9018951F920F920FB60F9211242F934E
:101790003F934F935F936F937F938F939F93AF93F9
:1017A000BF93EF93FF93DF93CF93CDB7DEB78091D5
:1017B000CC019091CD01009729F0E091CC01F091FE
:1017C000CD010995CF91DF91FF91EF91BF91AF913D
:1017D0009F918F917F916F915F914F913F912F9149
:1017E0000F900FBE0F901F901895DF93CF9300D0EE
:1017F00000D0CDB7DEB789836A838981282F30E096
:101800003C832B838B819C8181309105D1F02B818E
:101810003C81223031052CF48B819C81009761F052
:101820001EC02B813C812230310581F08B819C814F
:101830008330910581F013C0EAE3F0E08A81808370
:101840000EC0E7E3F0E08A81808309C0E4E3F0E0C2
:101850008A81808304C0E1E3F0E08A8180830F9075
:101860000F900F900F90CF91DF910895DF93CF935A
:1018700000D000D0CDB7DEB789836A838981282F55
:1018800030E03C832B838B819C8181309105D1F0AA
:101890002B813C81223031052CF48B819C81009777
:1018A00061F01EC02B813C812230310581F08B819B
:1018B0009C818330910581F013C0EBE3F0E08A81D5
:1018C00080830EC0E8E3F0E08A81808309C0E5E30D
:1018D000F0E08A81808304C0E2E3F0E08A818083C3
:1018E0000F900F900F900F90CF91DF910895DF939D
:1018F000CF93CDB7DEB727970FB6F894DEBF0FBEF4
:10190000CDBF89836A834B838B81813009F06FC09F
:101910008981282F30E03F832E838E819F81813003
:10192000910549F12E813F81223031052CF48E81C1
:101930009F81009761F0D2C02E813F812230310516
:1019400071F18E819F8183309105E9F1C7C0AAE3CF
:10195000B0E0EAE3F0E08081482F8A81282F30E070
:1019600081E090E0022E02C0880F991F0A94E2F7EE
:10197000842B8C93B3C0A7E3B0E0E7E3F0E0808171
:10198000482F8A81282F30E081E090E0022E02C0AB
:10199000880F991F0A94E2F7842B8C939FC0A4E3CD
:1019A000B0E0E4E3F0E08081482F8A81282F30E026
:1019B00081E090E0022E02C0880F991F0A94E2F79E
:1019C000842B8C938BC0A1E3B0E0E1E3F0E0808155
:1019D000482F8A81282F30E081E090E0022E02C05B
:1019E000880F991F0A94E2F7842B8C9377C08B8120
:1019F000882309F073C08981282F30E03D832C8330
:101A00008C819D818130910559F12C813D8122305D
:101A100031052CF48C819D81009769F05FC02C8189
:101A20003D812230310589F18C819D818330910582
:101A300009F440C053C0AAE3B0E0EAE3F0E08081DB
:101A4000482F8A81282F30E081E090E0022E02C0EA
:101A5000880F991F0A94E2F7809584238C933EC0E7
:101A6000A7E3B0E0E7E3F0E08081482F8A81282FE8
:101A700030E081E090E0022E02C0880F991F0A94A6
:101A8000E2F7809584238C9329C0A4E3B0E0E4E3DB
:101A9000F0E08081482F8A81282F30E081E090E0BB
:101AA000022E02C0880F991F0A94E2F780958423C2
:101AB0008C9314C0A1E3B0E0E1E3F0E08081482F13
:101AC0008A81282F30E081E090E0022E02C0880F4A
:101AD000991F0A94E2F7809584238C9327960FB67A
:101AE000F894DEBF0FBECDBFCF91DF910895DF9395
:101AF000CF93CDB7DEB727970FB6F894DEBF0FBEF2
:101B0000CDBF89836A834B838B81813009F06FC09D
:101B10008981282F30E03F832E838E819F81813001
:101B2000910549F12E813F81223031052CF48E81BF
:101B30009F81009761F0D2C02E813F812230310514
:101B400071F18E819F8183309105E9F1C7C0ABE3CC
:101B5000B0E0EBE3F0E08081482F8A81282F30E06D
:101B600081E090E0022E02C0880F991F0A94E2F7EC
:101B7000842B8C93B3C0A8E3B0E0E8E3F0E080816D
:101B8000482F8A81282F30E081E090E0022E02C0A9
:101B9000880F991F0A94E2F7842B8C939FC0A5E3CA
:101BA000B0E0E5E3F0E08081482F8A81282F30E023
:101BB00081E090E0022E02C0880F991F0A94E2F79C
:101BC000842B8C938BC0A2E3B0E0E2E3F0E0808151
:101BD000482F8A81282F30E081E090E0022E02C059
:101BE000880F991F0A94E2F7842B8C9377C08B811E
:101BF000882309F073C08981282F30E03D832C832E
:101C00008C819D818130910559F12C813D8122305B
:101C100031052CF48C819D81009769F05FC02C8187
:101C20003D812230310589F18C819D818330910580
:101C300009F440C053C0ABE3B0E0EBE3F0E08081D7
:101C4000482F8A81282F30E081E090E0022E02C0E8
:101C5000880F991F0A94E2F7809584238C933EC0E5
:101C6000A8E3B0E0E8E3F0E08081482F8A81282FE4
:101C700030E081E090E0022E02C0880F991F0A94A4
:101C8000E2F7809584238C9329C0A5E3B0E0E5E3D7
:101C9000F0E08081482F8A81282F30E081E090E0B9
:101CA000022E02C0880F991F0A94E2F780958423C0
:101CB0008C9314C0A2E3B0E0E2E3F0E08081482F0F
:101CC0008A81282F30E081E090E0022E02C0880F48
:101CD000991F0A94E2F7809584238C9327960FB678
:101CE000F894DEBF0FBECDBFCF91DF910895DF9393
:101CF000CF9300D000D0CDB7DEB789836A838981C6
:101D0000282F30E03C832B838B819C81813091058F
:101D100049F12B813C81223031052CF48B819C814F
:101D2000009761F05AC02B813C812230310571F15E
:101D30008B819C8183309105E9F14FC0ABE3B0E02A
:101D4000EBE3F0E08081482F8A81282F30E081E0AA
:101D500090E0022E02C0880F991F0A94E2F78427B0
:101D60008C933BC0A8E3B0E0E8E3F0E08081482F2B
:101D70008A81282F30E081E090E0022E02C0880F97
:101D8000991F0A94E2F784278C9327C0A5E3B0E05B
:101D9000E5E3F0E08081482F8A81282F30E081E060
:101DA00090E0022E02C0880F991F0A94E2F7842760
:101DB0008C9313C0A2E3B0E0E2E3F0E08081482F0F
:101DC0008A81282F30E081E090E0022E02C0880F47
:101DD000991F0A94E2F784278C930F900F900F902D
:101DE0000F90CF91DF910895DF93CF9300D000D073
:101DF0000F92CDB7DEB78A836B8319828A81282F31
:101E000030E03D832C834C815D814130510541F1AF
:101E10008C819D818230910534F42C813D81211586
:101E2000310561F052C04C815D814230510551F164
:101E30008C819D8183309105B9F147C0E9E3F0E0E1
:101E40008081282F30E08B81882F90E0A90102C08B
:101E5000559547958A95E2F7CA018170898335C007
:101E6000E6E3F0E08081282F30E08B81882F90E03E
:101E7000A90102C0559547958A95E2F7CA0181707C
:101E8000898323C0E3E3F0E08081282F30E08B8159
:101E9000882F90E0A90102C0559547958A95E2F7F1
:101EA000CA018170898311C0E0E3F0E08081282FAE
:101EB00030E08B81882F90E0A90102C055954795AD
:101EC0008A95E2F7CA018170898389810F900F900A
:101ED0000F900F900F90CF91DF910895DF93CF93E4
:101EE000CDB7DEB7A7E2B0E0E7E2F0E080818F7720
:101EF0008C93A7E2B0E0E7E2F0E0808180648C930D
:101F0000A6E2B0E0E6E2F0E0808181608C93A6E298
:101F1000B0E0E6E2F0E0808182608C93A6E2B0E07F
:101F2000E6E2F0E0808184608C93A6E2B0E0E6E235
:101F3000F0E0808180688C93CF91DF910895DF93EA
:101F4000CF930F92CDB7DEB78983A7E2B0E0E7E287
:101F5000F0E08081807E8C93A7E2B0E0E7E2F0E0E1
:101F600090818981892B8C93A6E2B0E0E6E2F0E0D3
:101F7000808180648C93E6E2F0E0808182958F70AE
:101F8000882F90E0817090700097A9F3A6E2B0E0EE
:101F9000E6E2F0E0808180618C93E4E2F0E0808111
:101FA00091810F90CF91DF910895AF92BF92CF9220
:101FB000DF92EF92FF920F931F93DF93CF93CDB7F2
:101FC000DEB764970FB6F894DEBF0FBECDBF6D834A
:101FD0007E838F83988729873A874B875C87ED8636
:101FE000FE860F87188BA98ABA8ACB8ADC8A198267
:101FF0001A821B821C8229A13AA14BA15CA18D816E
:102000009E81AF81B88579018A01E81AF90A0A0B25
:102010001B0B29893A894B895C898D859E85AF8503
:10202000B889281B390B4A0B5B0BC801B7010E940A
:10203000831F7B018C0129853A854B855C858D81C9
:102040009E81AF81B885281B390B4A0B5B0BC801F9
:10205000B7010E94D81FDA01C9019C01AD018D852D
:102060009E85AF85B889820F931FA41FB51F8983F2
:102070009A83AB83BC8389819A81AB81BC81BC018B
:10208000CD0164960FB6F894DEBF0FBECDBFCF91E1
:10209000DF911F910F91FF90EF90DF90CF90BF9055
:1020A000AF900895DF93CF93CDB7DEB781E060E0C6
:1020B00041E00E94770C81E061E041E00E94770CF2
:1020C00081E062E041E00E94770C81E063E041E062
:1020D0000E94770C81E064E040E00E94770C81E090
:1020E00065E040E00E94770C81E066E040E00E94FD
:1020F000770C81E067E040E00E94770C81E06FEFB1
:102100000E94360CCF91DF910895DF93CF93CDB726
:10211000DEB7A2970FB6F894DEBF0FBECDBFCE01DB
:1021200005969F8F8E8FE6EBF1E0F9A3E8A3F0E12F
:10213000FAA3E8A1F9A1008088A199A1019699A329
:1021400088A3EE8DFF8D00828E8D9F8D01969F8FCF
:102150008E8F9AA191509AA3EAA1EE2351F71D8A7E
:1021600081E08E8B82E08F8B83E0888F84E0898F83
:1021700085E08A8F86E08B8F87E08C8F8FEF8A8354
:1021800081E089831C8270C08C81282F30E0CE01D1
:102190004596FC01E20FF31F908181E0692F40E03A
:1021A0000E94770D1B824BC08B81282F30E0CE011F
:1021B0004996FC01E20FF31F908181E0692F0E9494
:1021C000F40E898389818823B9F50EC08B81282F6D
:1021D00030E0CE014996FC01E20FF31F908181E0CF
:1021E000692F0E94F40E89838981882379F38B817A
:1021F000282F30E08C81482F50E0220F331F220F10
:10220000331FCE010196820F931F840F951FFC018F
:10221000349680818A838C81282F30E0CE014596C8
:10222000FC01E20FF31F908181E0692F41E00E94E1
:10223000770DFA81FD8F1EC08B818F5F8B838B8121
:10224000843008F4B1CF8C81282F30E0CE01459640
:10225000FC01E20FF31F908181E0692F41E00E94B1
:10226000770D8C818F5F8C838C81843008F48CCFC8
:102270008A818D8F8D8DA2960FB6F894DEBF0FBE2A
:10228000CDBFCF91DF910895DF93CF9300D000D0E1
:10229000CDB7DEB789838981282F30E03C832B833B
:1022A0008B819C818730910509F46FC02B813C8123
:1022B0002830310554F58B819C818330910509F4D8
:1022C00058C02B813C812430310594F48B819C8152
:1022D0008130910509F447C02B813C8122303105C2
:1022E0000CF044C08B819C81009709F439C068C010
:1022F0002B813C812530310509F441C08B819C81C3
:10230000863091050CF03EC037C02B813C812B30CC
:10231000310509F446C08B819C818C3091055CF4B9
:102320002B813C8129303105B1F18B819C818A3030
:102330009105A4F52DC02B813C812D303105B9F1DB
:102340008B819C818D3091057CF12B813C812E30DD
:10235000310581F18B819C818F30910571F130C005
:1023600097E39A832FC028E32A832CC039E33A836A
:1023700029C081E48A8326C094E39A8323C025E39D
:102380002A8320C036E33A831DC082E48A831AC0C0
:1023900091E39A8317C022E32A8314C033E33A837C
:1023A00011C083E48A830EC09AE29A830BC020E3B3
:1023B0002A8308C033E23A8305C084E48A8302C0DA
:1023C0009FEF9A838A810F900F900F900F90CF917B
:1023D000DF910895DF93CF93CDB7DEB72F970FB678
:1023E000F894DEBF0FBECDBF8F8780E060E040E095
:1023F0000E94770D80E061E040E00E94770D82E06E
:102400006F850E94360C80E062E041E00E94770D0B
:1024100080E090E0A0E0B0E48B879C87AD87BE872A
:102420006B857C858D859E8520E030E04AEF54E405
:102430000E941F02DC01CB018F839887A987BA878E
:102440006F81788589859A8520E030E040E85FE3F8
:102450000E94790388232CF481E090E09E838D8391
:102460003FC06F81788589859A8520E03FEF4FE7EF
:1024700057E40E94190318164CF56B857C858D85F1
:102480009E8520E030E040E251E40E941F02DC0122
:10249000CB01BC01CD010E944900DC01CB019E8330
:1024A0008D830FC088EC90E09C838B838B819C8113
:1024B0000197F1F79C838B838D819E8101979E8389
:1024C0008D838D819E81009769F714C06F81788517
:1024D00089859A850E944900DC01CB019E838D830A
:1024E0008D819E819A83898389819A810197F1F7F1
:1024F0009A83898380E062E040E00E94770D2F9606
:102500000FB6F894DEBF0FBECDBFCF91DF91089517
:10251000DF93CF93CDB7DEB72F970FB6F894DEBF1A
:102520000FBECDBF8F8780E060E041E00E94770D55
:1025300080E061E040E00E94770D82E06F850E94BC
:10254000360C80E062E041E00E94770D80E090E090
:10255000A0E0B0E48B879C87AD87BE876B857C85C8
:102560008D859E8520E030E04AEF54E40E941F02F2
:10257000DC01CB018F839887A987BA876F81788523
:1025800089859A8520E030E040E85FE30E94790386
:1025900088232CF481E090E09E838D833FC06F817F
:1025A000788589859A8520E03FEF4FE757E40E94C0
:1025B000190318164CF56B857C858D859E8520E06A
:1025C00030E040E251E40E941F02DC01CB01BC017B
:1025D000CD010E944900DC01CB019E838D830FC099
:1025E00088EC90E09C838B838B819C810197F1F731
:1025F0009C838B838D819E8101979E838D838D81AA
:102600009E81009769F714C06F81788589859A85C6
:102610000E944900DC01CB019E838D838D819E81C8
:102620009A83898389819A810197F1F79A838983B3
:1026300080E062E040E00E94770D2F960FB6F8949C
:10264000DEBF0FBECDBFCF91DF910895DF93CF9353
:10265000CDB7DEB7E8970FB6F894DEBF0FBECDBF9B
:1026600080E090E0A8E4B2E48DAB9EABAFABB8AF36
:102670006DA97EA98FA998AD20E030E04AEF54E41F
:102680000E941F02DC01CB0189AB9AABABABBCABA8
:1026900069A97AA98BA99CA920E030E040E85FE312
:1026A0000E94790388232CF481E090E098AB8FA7F7
:1026B0003FC069A97AA98BA99CA920E03FEF4FE709
:1026C00057E40E94190318164CF56DA97EA98FA92D
:1026D00098AD20E030E040E251E40E941F02DC01AE
:1026E000CB01BC01CD010E944900DC01CB0198ABBC
:1026F0008FA70FC088EC90E09EA78DA78DA59EA503
:102700000197F1F79EA78DA78FA598A9019798AB80
:102710008FA78FA598A9009769F714C069A97AA90E
:102720008BA99CA90E944900DC01CB0198AB8FA723
:102730008FA598A99CA78BA78BA59CA50197F1F7BE
:102740009CA78BA788E30E94EA1180E090E0A0E8B4
:10275000BFE38FA398A7A9A7BAA76FA178A589A55A
:102760009AA520E030E04AEF54E40E941F02DC0109
:10277000CB018BA39CA3ADA3BEA36BA17CA18DA118
:102780009EA120E030E040E85FE30E9479038823C7
:102790002CF481E090E09AA389A33FC06BA17CA1B7
:1027A0008DA19EA120E03FEF4FE757E40E9419035F
:1027B00018164CF56FA178A589A59AA520E030E000
:1027C00040E251E40E941F02DC01CB01BC01CD01BB
:1027D0000E944900DC01CB019AA389A30FC088ECB9
:1027E00090E098A38F8F8F8D98A10197F1F798A310
:1027F0008F8F89A19AA101979AA389A389A19AA1F0
:10280000009769F714C06BA17CA18DA19EA10E94C5
:102810004900DC01CB019AA389A389A19AA19E8FCB
:102820008D8F8D8D9E8D0197F1F79E8F8D8F8CE012
:102830000E94EA1180E090E0A0E8BFE3898F9A8FC0
:10284000AB8FBC8F698D7A8D8B8D9C8D20E030E0B5
:102850004AEF54E40E941F02DC01CB018D8B9E8B5A
:10286000AF8BB88F6D897E898F89988D20E030E09D
:1028700040E85FE30E94790388232CF481E090E034
:102880009C8B8B8B3FC06D897E898F89988D20E0D2
:102890003FEF4FE757E40E94190318164CF5698D76
:1028A0007A8D8B8D9C8D20E030E040E251E40E94D7
:1028B0001F02DC01CB01BC01CD010E944900DC01FB
:1028C000CB019C8B8B8B0FC088EC90E09A8B898B13
:1028D00089899A890197F1F79A8B898B8B899C89D1
:1028E00001979C8B8B8B8B899C89009769F714C00F
:1028F0006D897E898F89988D0E944900DC01CB010A
:102900009C8B8B8B8B899C89988B8F878F859889E3
:102910000197F1F7988B8F8781E00E94EA1180E0A0
:1029200090E0A0E8BFE38B879C87AD87BE876B856F
:102930007C858D859E8520E030E04AEF54E40E943E
:102940001F02DC01CB018F839887A987BA876F812B
:10295000788589859A8520E030E040E85FE30E9431
:10296000790388232CF481E090E09E838D833FC01F
:102970006F81788589859A8520E03FEF4FE757E49E
:102980000E94190318164CF56B857C858D859E85F4
:1029900020E030E040E251E40E941F02DC01CB0164
:1029A000BC01CD010E944900DC01CB019E838D83D7
:1029B0000FC088EC90E09C838B838B819C81019776
:1029C000F1F79C838B838D819E8101979E838D83FC
:1029D0008D819E81009769F714C06F817885898504
:1029E0009A850E944900DC01CB019E838D838D81F5
:1029F0009E819A83898389819A810197F1F79A83CD
:102A00008983E8960FB6F894DEBF0FBECDBFCF9195
:102A1000DF910895DF93CF9300D00F92CDB7DEB74B
:102A20009B838A8319820EC08981282F30E08A8196
:102A30009B81FC01E20FF31F80810E948812898133
:102A40008F5F89838981282F30E08A819B81FC01F7
:102A5000E20FF31F8081882339F70F900F900F90BA
:102A6000CF91DF910895DF93CF93CDB7DEB729974C
:102A70000FB6F894DEBF0FBECDBF99878887198245
:102A800088859985009711F580E30E94881234C0EB
:102A90008981E82FF0E0888599852AE030E0B90146
:102AA0000E94A21F282F205DCE010296E80FF91F79
:102AB000208389818F5F8983888599852AE030E02A
:102AC000B9010E94A21FCB019987888788859985C3
:102AD0000097F1F60EC08981815089838981282F62
:102AE00030E0CE010296FC01E20FF31F80810E94CC
:102AF00088128981882379F729960FB6F894DEBF6A
:102B00000FBECDBFCF91DF910895DF93CF9300D05B
:102B10000F92CDB7DEB78A836B838FEF89838A816B
:102B2000823010F081E08A838A81882F90E00296BB
:102B30000024969587950794969587950794982FE6
:102B4000802D982F8B81890F898389810E94EA11BA
:102B50000F900F900F90CF91DF910895DF93CF9357
:102B6000CDB7DEB781E00E94EA11CF91DF910895E1
:102B7000DF93CF93CDB7DEB764970FB6F894DEBF7F
:102B80000FBECDBF8C8B188A198A1A8A1B8A1F86A2
:102B900087C08C890E949F0F9C0140E050E088898B
:102BA0009989AA89BB89820F931FA41FB51F888B9F
:102BB000998BAA8BBB8B80E090E0A0E2B1E48B877D
:102BC0009C87AD87BE876B857C858D859E8520E043
:102BD00030E04AEF54E40E941F02DC01CB018F83F6
:102BE0009887A987BA876F81788589859A8520E03B
:102BF00030E040E85FE30E94790388232CF481E011
:102C000090E09E838D833FC06F81788589859A850A
:102C100020E03FEF4FE757E40E94190318164CF5E8
:102C20006B857C858D859E8520E030E040E251E417
:102C30000E941F02DC01CB01BC01CD010E944900B2
:102C4000DC01CB019E838D830FC088EC90E09C83D8
:102C50008B838B819C810197F1F79C838B838D8182
:102C60009E8101979E838D838D819E81009769F758
:102C700014C06F81788589859A850E944900DC019E
:102C8000CB019E838D838D819E819A8389838981E7
:102C90009A810197F1F79A8389838F858F5F8F8758
:102CA0008F858A3008F475CF88899989AA89BB896C
:102CB0002AE030E040E050E0BC01CD010E94B61FA8
:102CC000DA01C901BC01CD0164960FB6F894DEBFEC
:102CD0000FBECDBFCF91DF910895DF93CF93CDB7D6
:102CE000DEB7EC970FB6F894DEBF0FBECDBF0E94E3
:102CF0006E0F80E067E040E00E94770C87E00E9462
:102D0000B815DC01CB0122E330E040E050E0BC012B
:102D1000CD010E94831FDC01CB01072E7AE0B6951E
:102D2000A795979587957A95D1F7702D89AF9AAF2A
:102D3000ABAFBCAF80E065E041E00E94770C89ADAD
:102D40009AADABADBCAD0097A105B10509F078C057
:102D500080E065E040E00E94770D80E090E0A8EC24
:102D6000B2E48DAB9EABAFABB8AF6DA97EA98FA916
:102D700098AD20E030E04AEF54E40E941F02DC01ED
:102D8000CB0189AB9AABABABBCAB69A97AA98BA9D8
:102D90009CA920E030E040E85FE30E9479038823AB
:102DA0002CF481E090E098AB8FA73FC069A97AA985
:102DB0008BA99CA920E03FEF4FE757E40E9419033D
:102DC00018164CF56DA97EA98FA998AD20E030E0CA
:102DD00040E251E40E941F02DC01CB01BC01CD01A5
:102DE0000E944900DC01CB0198AB8FA70FC088EC93
:102DF00090E09EA78DA78DA59EA50197F1F79EA7B0
:102E00008DA78FA598A9019798AB8FA78FA598A993
:102E1000009769F78CC069A97AA98BA99CA90E941F
:102E20004900DC01CB0198AB8FA78FA598A99CA77F
:102E30008BA78BA59CA50197F1F79CA78BA777C0C3
:102E400080E065E041E00E94770D80E090E0A8EC32
:102E5000B2E48FA398A7A9A7BAA76FA178A589A55F
:102E60009AA520E030E04AEF54E40E941F02DC0102
:102E7000CB018BA39CA3ADA3BEA36BA17CA18DA111
:102E80009EA120E030E040E85FE30E9479038823C0
:102E90002CF481E090E09AA389A33FC06BA17CA1B0
:102EA0008DA19EA120E03FEF4FE757E40E94190358
:102EB00018164CF56FA178A589A59AA520E030E0F9
:102EC00040E251E40E941F02DC01CB01BC01CD01B4
:102ED0000E944900DC01CB019AA389A30FC088ECB2
:102EE00090E098A38F8F8F8D98A10197F1F798A309
:102EF0008F8F89A19AA101979AA389A389A19AA1E9
:102F0000009769F714C06BA17CA18DA19EA10E94BE
:102F10004900DC01CB019AA389A389A19AA19E8FC4
:102F20008D8F8D8D9E8D0197F1F79E8F8D8F83E014
:102F300063E00E94F40E882309F078C083E062E029
:102F400041E00E94770D80E090E0A8ECB2E4898F28
:102F50009A8FAB8FBC8F698D7A8D8B8D9C8D20E085
:102F600030E04AEF54E40E941F02DC01CB018D8B5C
:102F70009E8BAF8BB88F6D897E898F89988D20E06D
:102F800030E040E85FE30E94790388232CF481E07D
:102F900090E09C8B8B8B3FC06D897E898F89988D4B
:102FA00020E03FEF4FE757E40E94190318164CF555
:102FB000698D7A8D8B8D9C8D20E030E040E251E46C
:102FC0000E941F02DC01CB01BC01CD010E9449001F
:102FD000DC01CB019C8B8B8B0FC088EC90E09A8B33
:102FE000898B89899A890197F1F79A8B898B8B89CB
:102FF0009C8901979C8B8B8B8B899C89009769F7A7
:103000008CC06D897E898F89988D0E944900DC0172
:10301000CB019C8B8B8B8B899C89988B8F878F8521
:1030200098890197F1F7988B8F8777C083E062E0EA
:1030300040E00E94770D80E090E0A8ECB2E48B873E
:103040009C87AD87BE876B857C858D859E8520E0BE
:1030500030E04AEF54E40E941F02DC01CB018F8371
:103060009887A987BA876F81788589859A8520E0B6
:1030700030E040E85FE30E94790388232CF481E08C
:1030800090E09E838D833FC06F81788589859A8586
:1030900020E03FEF4FE757E40E94190318164CF564
:1030A0006B857C858D859E8520E030E040E251E493
:1030B0000E941F02DC01CB01BC01CD010E9449002E
:1030C000DC01CB019E838D830FC088EC90E09C8354
:1030D0008B838B819C810197F1F79C838B838D81FE
:1030E0009E8101979E838D838D819E81009769F7D4
:1030F00014C06F81788589859A850E944900DC011A
:10310000CB019E838D838D819E819A838983898162
:103110009A810197F1F79A838983EC960FB6F89418
:10312000DEBF0FBECDBFCF91DF9108950F931F93E8
:10313000DF93CF93CDB7DEB7C257D0400FB6F89428
:10314000DEBF0FBECDBF83E062E041E00E94770C9E
:1031500083E063E040E00E94770C83E063E041E0BD
:103160000E94770D82E06FEF0E94F50B81E060E036
:103170000E94F50B80E06FEF0E94F50B83E060E0AA
:1031800040E00E94770C83E061E041E00E94770C10
:1031900083E065E041E00E94770C0E946E0F0E9480
:1031A00026130E9452100E94BF090E94A305FE012F
:1031B000E859FF4F1082FE01EC59FF4F1082FE01CB
:1031C000ED59FF4F10820E94AE15EEC40E94AE155D
:1031D00080E690E00E940A1581E060E00E9485157B
:1031E000FE01EA59FF4F1082EDC00E9485100E9437
:1031F0004411FE01E959FF4F8083FE01E959FF4F59
:1032000080818F3F31F40E94FB05FE01E959FF4F99
:103210008083FE01E959FF4F80818F3F31F3FE012A
:10322000EA59FF4F8081282F30E0CE0187599F4F08
:10323000DC01A20FB31FFE01E959FF4F80818C937F
:10324000FE01E959FF4F80810E948812FE01E15A78
:10325000FF4F80E090E0A6E9B3E480839183A283EE
:10326000B3838E01055A1F4FFE01E15AFF4F608163
:1032700071818281938120E030E04AEF54E40E9422
:103280001F02DC01CB01F80180839183A283B38309
:10329000FE01E55AFF4F608171818281938120E0B8
:1032A00030E040E85FE30E947903882344F4FE01A4
:1032B000E75AFF4F81E090E09183808364C0FE0174
:1032C000E55AFF4F608171818281938120E03FEF59
:1032D0004FE757E40E94190318160CF043C0FE0193
:1032E000E15AFF4F608171818281938120E030E05B
:1032F00040E251E40E941F02DC01CB018E01075A1B
:103300001F4FBC01CD010E944900DC01CB01F80137
:10331000918380831FC0FE01E95AFF4F88EC90E043
:1033200091838083FE01E95AFF4F8081918101974B
:10333000F1F7FE01E95AFF4F91838083DE01A75A1E
:10334000BF4FFE01E75AFF4F80819181019711968F
:103350009C938E93FE01E75AFF4F808191810097E5
:10336000D1F627C08E01075A1F4FFE01E55AFF4FC5
:1033700060817181828193810E944900DC01CB01CF
:10338000F80191838083DE01AB5ABF4FFE01E75AFB
:10339000FF4F808191818D939C93FE01EB5AFF4FEB
:1033A000808191810197F1F7FE01EB5AFF4F9183E4
:1033B0008083DE01AA59BF4FFE01EA59FF4F808189
:1033C0008F5F8C93FE01EA59FF4F8081843008F4AF
:1033D0000CCFFE01E759FF4F1482FE01EB59FF4F5E
:1033E000108224C0FE01EB59FF4F8081882F90E0AE
:1033F000880F991FFC01E257FE4F20813181CE01D9
:1034000087599F4FB9010E942A20009731F4FE018D
:10341000ED59FF4F81E080830FC0DE01AB59BF4FF4
:10342000FE01EB59FF4F80818F5F8C93FE01EB59BA
:10343000FF4F80818A30B0F2FE01ED59FF4F80814D
:10344000882309F430C30E94AE158FE690E00E94F5
:103450000A1581E060E00E948515FE01EA59FF4FE0
:103460001082EAC00E9485100E944411FE01E959B1
:10347000FF4F8083FE01E959FF4F80818F3F31F478
:103480000E94FB05FE01E959FF4F8083FE01E959C7
:10349000FF4F80818F3F31F3FE01EA59FF4F80815A
:1034A000282F30E0CE0182599F4FDC01A20FB31FBD
:1034B000FE01E959FF4F80818C938AE20E948812B5
:1034C000FE01EF5AFF4F80E090E0A6E9B3E480836D
:1034D0009183A283B3838E01035B1F4FFE01EF5ADA
:1034E000FF4F608171818281938120E030E04AEF5B
:1034F00054E40E941F02DC01CB01F8018083918318
:10350000A283B383FE01E35BFF4F608171818281FF
:10351000938120E030E040E85FE30E947903882354
:1035200044F4FE01E55BFF4F81E090E091838083EE
:1035300064C0FE01E35BFF4F6081718182819381F2
:1035400020E03FEF4FE757E40E94190318160CF0F4
:1035500043C0FE01EF5AFF4F6081718182819381E8
:1035600020E030E040E251E40E941F02DC01CB0188
:103570008E01055B1F4FBC01CD010E944900DC019B
:10358000CB01F801918380831FC0FE01E75BFF4FF1
:1035900088EC90E091838083FE01E75BFF4F8081A0
:1035A00091810197F1F7FE01E75BFF4F91838083E3
:1035B000DE01A55BBF4FFE01E55BFF4F808191817E
:1035C000019711969C938E93FE01E55BFF4F8081DE
:1035D00091810097D1F627C08E01055B1F4FFE0138
:1035E000E35BFF4F60817181828193810E9449007A
:1035F000DC01CB01F80191838083DE01A95BBF4F21
:10360000FE01E55BFF4F808191818D939C93FE01CC
:10361000E95BFF4F808191810197F1F7FE01E95B42
:10362000FF4F91838083DE01AA59BF4FFE01EA5903
:10363000FF4F80818F5F8C93FE01EA59FF4F80819D
:10364000843008F40FCFFE01E259FF4F1482FE01CF
:10365000EB59FF4F8081882F90E0880F991FFC0164
:10366000EE55FE4F20813181CE0182599F4FB90125
:103670000E942A20009709F09DC10E94AE158FE795
:1036800090E00E940A15FE01EC59FF4F81E0808313
:10369000FE01ED5BFF4F80E090E0AAE7B4E4808399
:1036A0009183A283B3838E01015C1F4FFE01ED5B0A
:1036B000FF4F608171818281938120E030E04AEF89
:1036C00054E40E941F02DC01CB01F8018083918346
:1036D000A283B383FE01FF96608171818281938111
:1036E00020E030E040E85FE30E94790388232CF477
:1036F00081E090E09EAF8DAF46C0FE01FF966081F5
:1037000071818281938120E03FEF4FE757E40E946F
:103710001903181664F5FE01ED5BFF4F608171819E
:103720008281938120E030E040E251E40E941F0258
:10373000DC01CB01BC01CD010E944900DC01CB01C1
:103740009EAF8DAF0FC088EC90E09CAF8BAF8BAD80
:103750009CAD0197F1F79CAF8BAF8DAD9EAD0197FE
:103760009EAF8DAF8DAD9EAD009769F716C0FE017F
:10377000FF9660817181828193810E944900DC0102
:10378000CB019EAF8DAF8DAD9EAD9AAF89AF89ADA8
:103790009AAD0197F1F79AAF89AF0E94AE158EE806
:1037A00090E00E940A1581E060E00E9485158BE997
:1037B00090E00E940A150E9485100E944411FE01AB
:1037C000E959FF4F8083FE01E959FF4F80818F3F08
:1037D00031F40E94FB05FE01E959FF4F8083FE0191
:1037E000E959FF4F8081813309F0D6C00E94AE15A0
:1037F00085EA90E00E940A150E94711E80E090E028
:10380000AAEFB3E48DAB9EABAFABB8AF6DA97EA909
:103810008FA998AD20E030E04AEF54E40E941F02E7
:10382000DC01CB0189AB9AABABABBCAB69A97AA984
:103830008BA99CA920E030E040E85FE30E94790377
:1038400088232CF481E090E098AB8FA73FC069A952
:103850007AA98BA99CA920E03FEF4FE757E40E948B
:10386000190318164CF56DA97EA98FA998AD20E013
:1038700030E040E251E40E941F02DC01CB01BC01B8
:10388000CD010E944900DC01CB0198AB8FA70FC08E
:1038900088EC90E09EA78DA78DA59EA50197F1F7D6
:1038A0009EA78DA78FA598A9019798AB8FA78FA5E5
:1038B00098A9009769F714C069A97AA98BA99CA94E
:1038C0000E944900DC01CB0198AB8FA78FA598A976
:1038D0009CA78BA78BA59CA50197F1F79CA78BA70D
:1038E0000E94AE1582EB90E00E940A1581E060E034
:1038F0000E94851583EC90E00E940A150E946D16C7
:103900000E9485100E944411FE01E959FF4F8083F7
:10391000FE01E959FF4F80818F3F31F40E94FB0582
:10392000FE01E959FF4F8083FE01E959FF4F808175
:103930008133B1F480E064E041E00E94770D80E0E3
:1039400060E00E94851583ED90E00E940A1580E0FA
:1039500060E00E94851584EE90E00E940A15CECFAB
:10396000FE01E959FF4F8081823341F680E064E037
:1039700040E00E94770D80E060E00E94851583EDB5
:1039800090E00E940A1580E060E00E9485158EEEAE
:1039900090E00E940A15B2CFFE01E959FF4F8081E5
:1039A000823309F008CF0E94AE1589EF90E00E94A3
:1039B0000A1501C10E94AE158DE091E00E940A1522
:1039C00080E090E0AAEFB4E48FA398A7A9A7BAA7D4
:1039D0006FA178A589A59AA520E030E04AEF54E4CC
:1039E0000E941F02DC01CB018BA39CA3ADA3BEA34D
:1039F0006BA17CA18DA19EA120E030E040E85FE3B7
:103A00000E94790388232CF481E090E09AA389A393
:103A10003FC06BA17CA18DA19EA120E03FEF4FE7AD
:103A200057E40E94190318164CF56FA178A589A5D3
:103A30009AA520E030E040E251E40E941F02DC0140
:103A4000CB01BC01CD010E944900DC01CB019AA34E
:103A500089A30FC088EC90E098A38F8F8F8D98A1D9
:103A60000197F1F798A38F8F89A19AA101979AA343
:103A700089A389A19AA1009769F78DC06BA17CA148
:103A80008DA19EA10E944900DC01CB019AA389A3CC
:103A900089A19AA19E8F8D8F8D8D9E8D0197F1F7B3
:103AA0009E8F8D8F78C00E94AE1587E191E00E94B5
:103AB0000A1580E090E0AAEFB4E4898F9A8FAB8F6B
:103AC000BC8F698D7A8D8B8D9C8D20E030E04AEF24
:103AD00054E40E941F02DC01CB018D8B9E8BAF8BC7
:103AE000B88F6D897E898F89988D20E030E040E81D
:103AF0005FE30E94790388232CF481E090E09C8BA3
:103B00008B8B3FC06D897E898F89988D20E03FEF38
:103B10004FE757E40E94190318164CF5698D7A8D0A
:103B20008B8D9C8D20E030E040E251E40E941F022A
:103B3000DC01CB01BC01CD010E944900DC01CB01BD
:103B40009C8B8B8B0FC088EC90E09A8B898B89893A
:103B50009A890197F1F79A8B898B8B899C890197B8
:103B60009C8B8B8B8B899C89009769F714C06D891E
:103B70007E898F89988D0E944900DC01CB019C8B46
:103B80008B8B8B899C89988B8F878F8598890197E0
:103B9000F1F7988B8F87DE01A859BF4FFE01E859D6
:103BA000FF4F80818F5F8C93FE01E859FF4F80812A
:103BB000833008F40BCBFE01EC59FF4F8081882342
:103BC00009F07DC00E94AE1587E291E00E940A15BF
:103BD00080E063E041E00E94770D80E090E8ABE395
:103BE000B5E48B879C87AD87BE876B857C858D858B
:103BF0009E8520E030E04AEF54E40E941F02DC0181
:103C0000CB018F839887A987BA876F81788589854B
:103C10009A8520E030E040E85FE30E947903882342
:103C20002CF481E090E09E838D833FC06F81788586
:103C300089859A8520E03FEF4FE757E40E941903FA
:103C400018164CF56B857C858D859E8520E030E0CF
:103C500040E251E40E941F02DC01CB01BC01CD0116
:103C60000E944900DC01CB019E838D830FC088EC4C
:103C700090E09C838B838B819C810197F1F79C83DF
:103C80008B838D819E8101979E838D838D819E8103
:103C9000009769F714C06F81788589859A850E949D
:103CA0004900DC01CB019E838D838D819E819A83A7
:103CB000898389819A810197F1F79A8389830E9488
:103CC000AE1587E391E00E940A15CE58DF4F0FB67C
:103CD000F894DEBF0FBECDBFCF91DF911F910F9142
:103CE0000895DF93CF93CDB7DEB76C970FB6F894F6
:103CF000DEBF0FBECDBF0E94100682E00E94A60666
:103D000080E29EE40E94CC0788E592E00E949E0734
:103D100083E067E041E00E94770D80E090E0AAE751
:103D2000B4E4898F9A8FAB8FBC8F698D7A8D8B8D20
:103D30009C8D20E030E04AEF54E40E941F02DC0139
:103D4000CB018D8B9E8BAF8BB88F6D897E898F89D0
:103D5000988D20E030E040E85FE30E9479038823FB
:103D60002CF481E090E09C8B8B8B3FC06D897E8929
:103D70008F89988D20E03FEF4FE757E40E941903A9
:103D800018164CF5698D7A8D8B8D9C8D20E030E076
:103D900040E251E40E941F02DC01CB01BC01CD01D5
:103DA0000E944900DC01CB019C8B8B8B0FC088ECFF
:103DB00090E09A8B898B89899A890197F1F79A8B80
:103DC000898B8B899C8901979C8B8B8B8B899C8998
:103DD000009769F714C06D897E898F89988D0E943C
:103DE0004900DC01CB019C8B8B8B8B899C89988B48
:103DF0008F878F8598890197F1F7988B8F8788E750
:103E000095E00E949E0783E067E040E00E94770D06
:103E100080E090E0AAE7B4E48B879C87AD87BE87FB
:103E20006B857C858D859E8520E030E04AEF54E4EB
:103E30000E941F02DC01CB018F839887A987BA8774
:103E40006F81788589859A8520E030E040E85FE3DE
:103E50000E94790388232CF481E090E09E838D8377
:103E60003FC06F81788589859A8520E03FEF4FE7D5
:103E700057E40E94190318164CF56B857C858D85D7
:103E80009E8520E030E040E251E40E941F02DC0108
:103E9000CB01BC01CD010E944900DC01CB019E8316
:103EA0008D830FC088EC90E09C838B838B819C81F9
:103EB0000197F1F79C838B838D819E8101979E836F
:103EC0008D838D819E81009769F714C06F817885FD
:103ED00089859A850E944900DC01CB019E838D83F0
:103EE0008D819E819A83898389819A810197F1F7D7
:103EF0009A8389836C960FB6F894DEBF0FBECDBF50
:103F0000CF91DF910895629FD001739FF001829F4E
:103F1000E00DF11D649FE00DF11D929FF00D839F58
:103F2000F00D749FF00D659FF00D9927729FB00DF5
:103F3000E11DF91F639FB00DE11DF91FBD01CF0108
:103F400011240895AA1BBB1B51E107C0AA1FBB1F68
:103F5000A617B70710F0A61BB70B881F991F5A9515
:103F6000A9F780959095BC01CD010895A1E21A2E84
:103F7000AA1BBB1BFD010DC0AA1FBB1FEE1FFF1F0D
:103F8000A217B307E407F50720F0A21BB30BE40B5D
:103F9000F50B661F771F881F991F1A9469F76095A4
:103FA0007095809590959B01AC01BD01CF0108955E
:103FB00097FB092E05260ED057FD04D0D7DF0AD077
:103FC000001C38F450954095309521953F4F4F4F48
:103FD0005F4F0895F6F790958095709561957F4FA6
:103FE0008F4F9F4F08952F923F924F925F926F9203
:103FF0007F928F929F92AF92BF92CF92DF92EF9279
:10400000FF920F931F93CF93DF93CDB7DEB7CA1BF9
:10401000DB0B0FB6F894DEBF0FBECDBF09942A8824
:10402000398848885F846E847D848C849B84AA84CC
:10403000B984C884DF80EE80FD800C811B81AA8159
:10404000B981CE0FD11D0FB6F894DEBF0FBECDBF24
:10405000ED010895FB01DC018D91019080190110A3
:0A406000D9F3990B0895F894FFCFEF
:10406A00454E54455220555345522049443A00453D
:10407A004E5445522050415353574F52443A0041EF
:10408A004343455353204752414E54454400313A25
:10409A00204F50454E20444F4F5200323A20434160
:1040AA004E43454C00444F4F52206973204F5045B0
:1040BA004E00312D4C45446F6E5F322D4C45446F96
:1040CA00666600555345204C445220414E442046D2
:1040DA00414E0020202020202020202020202020A7
:1040EA00202020004C4544206973204F4E004C4547
:1040FA0044206973204F4646004F50455241544967
:10410A004F4E2043414E43454C4C454400494E4393
:10411A004F525245435400494E56414C494420554A
:10412A0053455220494400414C41524D2054524972
:10413A004747455245440053454520594F552100AC
:10414A0031313131003232323200333333330034D9
:10415A00343434003535353500363636360037379F
:10416A003737003838383800393939390030303083
:10417A003000313233340034333231003536373897
:10418A00003837363500000000000000000040010A
:10419A0045014A014F01540159015E016301680159
:1041AA006D01720177017C018101400145014A01DB
:1041BA004F015401590100010203040506070809C9
:0641CA000A0B0C0D0E0FA4
:00000001FF
